:020000040800F2
:1000000000280020510B0008F50A0008FB0A000830
:10001000010B0008070B00080D0B00080000000092
:10002000000000000000000000000000130B0008AA
:100030001F0B0008000000002B0B0008370B000806
:10004000990B0008990B0008990B0008990B000800
:10005000990B0008990B0008990B0008990B0008F0
:10006000990B0008990B0008990B0008990B0008E0
:10007000990B0008990B0008990B0008990B0008D0
:10008000990B0008990B0008990B0008990B0008C0
:10009000990B0008990B0008990B0008990B0008B0
:1000A000990B0008990B0008990B0008990B0008A0
:1000B000990B0008990B000800000000990B00083C
:1000C000990B00080000000000000000990B0008D8
:1000D00000000000990B0008990B000800000000C8
:1000E000990B0008990B0008990B0008000000000C
:1000F0000000000000000000000000000000000000
:0C01000000000000000000005FF808F1A3
:10010C0010B5054C237833B9044B13B10448AFF345
:10011C0000800123237010BD0C00002000000000A3
:10012C00AC19000808B5034B1BB103490348AFF3E6
:10013C00008008BD0000000010000020AC19000871
:10014C0080B582B000AF7860C7F800C07B68092B1F
:10015C0000F2808101A252F823F000BF9101000847
:10016C00D90100082102000869020008B102000848
:10017C00F90200084103000889030008D1030008B4
:10018C001904000801224021B44800F0E7FF0022C6
:10019C000121B24800F0E2FF00220221AF4800F03A
:1001AC00DDFF00220421AD4800F0D8FF0022082119
:1001BC00AA4800F0D3FF00221021A84800F0CEFF7F
:1001CC0000222021A54800F0C9FF43E101220121B2
:1001DC00A24800F0C3FF01222021A04800F0BEFF7E
:1001EC00012210219D4800F0B9FF012208219B48F3
:1001FC0000F0B4FF01224021984800F0AFFF00222C
:10020C000221964800F0AAFF00220421934800F036
:10021C00A5FF1FE100220121904800F09FFF002262
:10022C0002218E4800F09AFF012204218B4800F035
:10023C0095FF00220821894800F090FF0022102130
:10024C00864800F08BFF01222021844800F086FFB5
:10025C0000224021814800F081FFFBE000220121B7
:10026C007E4800F07BFF002202217C4800F076FFE4
:10027C0000220421794800F071FF00220821774800
:10028C0000F06CFF01221021744800F067FF01227E
:10029C002021724800F062FF002240216F4800F0DC
:1002AC005DFFD7E0012201216C4800F057FF0022CE
:1002BC0002216A4800F052FF00220421674800F036
:1002CC004DFF01220821654800F048FF0122102152
:1002DC00624800F043FF00222021604800F03EFFFE
:1002EC00002240215D4800F039FFB3E000220121DB
:1002FC005A4800F033FF01220221584800F02EFF2B
:10030C0000220421554800F029FF002208215348FF
:10031C0000F024FF01221021504800F01FFF0022A2
:10032C0020214E4800F01AFF002240214B4800F0DB
:10033C0015FF8FE000220121484800F00FFF012239
:10034C000221464800F00AFF00220421434800F035
:10035C0005FF00220821414800F000FF0022102177
:10036C003E4800F0FBFE002220213C4800F0F6FE47
:10037C0000224021394800F0F1FE6BE000220121FF
:10038C00364800F0EBFE00220221344800F0E6FE75
:10039C0000220421314800F0E1FE012208212F48FF
:1003AC0000F0DCFE012210212C4800F0D7FE0122C7
:1003BC0020212A4800F0D2FE01224021274800F0DB
:1003CC00CDFE47E000220121244800F0C7FE0022A8
:1003DC000221224800F0C2FE002204211F4800F036
:1003EC00BDFE002208211D4800F0B8FE002210219D
:1003FC001A4800F0B3FE00222021184800F0AEFE8F
:10040C0000224021154800F0A9FE23E00022012122
:10041C00124800F0A3FE00220221104800F09EFEBC
:10042C00002204210D4800F099FE002208210B48FF
:10043C0000F094FE01221021084800F08FFE0022EB
:10044C002021064800F08AFE00224021034800F0DB
:10045C0085FE00BF00BF0837BD4680BD000C0140C3
:10046C0080B582B000AF07F110037B6000F090FB09
:10047C0000F082FA00F0BCFA3B1D9C4600F014FA26
:10048C00FAE7000080B582B000AF7860C7F800C012
:10049C007B68092B00F2C98101A252F823F000BF3E
:1004AC00D50400082B05000881050008D7050008B5
:1004BC002D06000883060008D90600082F0700083F
:1004CC0085070008E107000801224FF40041C048ED
:1004DC0000F044FE00224FF40071BD4800F03EFED7
:1004EC0000224FF48061BA4800F038FE00224FF42D
:1004FC000061B74800F032FE00224FF48051B4483E
:10050C0000F02CFE00224FF40051B14800F026FE02
:10051C0000224FF48041AE4800F020FE85E101221C
:10052C004FF40071AA4800F019FE01224FF48041EB
:10053C00A74800F013FE01224FF40051A44800F02C
:10054C000DFE01224FF48051A14800F007FE01225C
:10055C004FF400419E4800F001FE00224FF48061F0
:10056C009B4800F0FBFD00224FF40061984800F01E
:10057C00F5FD5AE100224FF40071954800F0EEFDB4
:10058C0000224FF48061924800F0E8FD01224FF404
:10059C0000618F4800F0E2FD00224FF480518C483E
:1005AC0000F0DCFD00224FF40051894800F0D6FD2C
:1005BC0001224FF48041864800F0D0FD00224FF418
:1005CC000041834800F0CAFD2FE100224FF4007176
:1005DC007F4800F0C3FD00224FF480617C4800F09E
:1005EC00BDFD00224FF40061794800F0B7FD0022F8
:1005FC004FF48051764800F0B1FD01224FF40051C8
:10060C00734800F0ABFD01224FF48041704800F0BC
:10061C00A5FD00224FF400416D4800F09FFD04E160
:10062C0001224FF400716A4800F098FD00224FF44B
:10063C008061674800F092FD00224FF4006164482D
:10064C0000F08CFD01224FF48051614800F086FDD2
:10065C0001224FF400515E4800F080FD00224FF45F
:10066C0080415B4800F07AFD00224FF4004158486D
:10067C0000F074FDD9E000224FF40071544800F0F2
:10068C006DFD01224FF48061514800F067FD00229E
:10069C004FF400614E4800F061FD00224FF4805190
:1006AC004B4800F05BFD01224FF40051484800F02C
:1006BC0055FD00224FF48041454800F04FFD0022CB
:1006CC004FF40041424800F049FDAEE000224FF4E7
:1006DC0000713F4800F042FD01224FF480613C481C
:1006EC0000F03CFD00224FF40061394800F036FD6B
:1006FC0000224FF48051364800F030FD00224FF4B8
:10070C000051334800F02AFD00224FF4804130485C
:10071C0000F024FD00224FF400412D4800F01EFD96
:10072C0083E000224FF40071294800F017FD0022ED
:10073C004FF48061264800F011FD00224FF4006157
:10074C00234800F00BFD01224FF48051204800F0AB
:10075C0005FD01224FF400511D4800F0FFFC012261
:10076C004FF480411A4800F0F9FC01224FF400418B
:10077C00174800F0F3FC58E000224FF400711448C5
:10078C0000F0ECFC00224FF48061114800F0E6FC14
:10079C0000224FF400610E4800F0E0FC00224FF400
:1007AC0080510B4800F0DAFC00224FF4005108484D
:1007BC0000F0D4FC00224FF48041054800F0CEFC40
:1007CC0000224FF40041024800F0C8FC2DE000BFAD
:1007DC000008014000224FF40071164800F0BEFCE6
:1007EC0000224FF48061134800F0B8FC00224FF453
:1007FC000061104800F0B2FC00224FF480510D480B
:10080C0000F0ACFC01224FF400510A4800F0A6FCA9
:10081C0000224FF48041074800F0A0FC00224FF466
:10082C000041044800F09AFC00BF00BF0837BD46E9
:10083C0080BD00BF0008014090B587B000AFF860E4
:10084C00B9606446C7F804C000237B611EE0FA68F7
:10085C007B69D31A002B06DBFA687B69D31AA44692
:10086C001846FFF76DFCBA687B69D31A002B06DBC0
:10087C00BA687B69D31AA4461846FFF703FE4FF4F7
:10088C007A7000F0E7F97B6901337B61BA68FB6829
:10089C009342B8BF13467A699A42D8DB00BF00BFB7
:1008AC001C37BD4690BD000090B583B000AF6446C8
:1008BC00C7F804C0012201212E4800F04FFC002291
:1008CC0002212C4800F04AFC00220421294800F0A7
:1008DC0045FC00220821274800F040FC0022102192
:1008EC00244800F03BFC01224FF48071214800F0B9
:1008FC0035FCA44603210520FFF79EFF00220121B1
:10090C001C4800F02BFC002202211A4800F026FCA7
:10091C0001220421174800F021FC0122082115486E
:10092C0000F01CFC00221021124800F017FC0022E1
:10093C004FF480710F4800F011FCA44601210320F4
:10094C00FFF77AFF002201210A4800F007FC012280
:10095C000221084800F002FC00220421054800F0A6
:10096C00FDFBA44601210220FFF766FF00BF0C37F8
:10097C00BD4690BD0008014080B590B000AF07F1B6
:10098C00180328220021184600F0DEFF3B1D002230
:10099C001A605A609A60DA601A610223BB61012303
:1009AC00BB621023FB6200237B6307F1180318461C
:1009BC0000F0ECFB0346002B01D000F06DF80F2388
:1009CC007B600023BB600023FB6000233B610023A2
:1009DC007B613B1D0021184600F05AFE0346002B9C
:1009EC0001D000F059F800BF4037BD4680BD000073
:1009FC0080B586B000AF07F1080300221A605A6078
:100A0C009A60DA60214B9B69204A43F0040393619E
:100A1C001E4B9B6903F004037B607B681B4B9B693B
:100A2C001A4A43F008039361184B9B6903F00803BF
:100A3C003B603B6800224FF61F71154800F08EFB9F
:100A4C0000227F21134800F089FB4FF61F73BB6017
:100A5C000123FB6000233B6102237B6107F1080348
:100A6C0019460B4800F0FEF97F23BB600123FB60A5
:100A7C0000233B6102237B6107F1080319460548FB
:100A8C0000F0F0F900BF1837BD4680BD00100240E1
:100A9C0000080140000C014080B400AF72B600BFEA
:100AAC00FEE7000080B483B000AF0E4B9B690D4A8B
:100ABC0043F0010393610B4B9B6903F001037B60D3
:100ACC007B68084BDB69074A43F08053D361054BC5
:100ADC00DB6903F080533B603B6800BF0C37BD46BD
:100AEC0080BC70470010024080B400AFFEE780B4B9
:100AFC0000AFFEE780B400AFFEE780B400AFFEE7C6
:100B0C0080B400AFFEE780B400AF00BFBD4680BC30
:100B1C00704780B400AF00BFBD4680BC704780B446
:100B2C0000AF00BFBD4680BC704780B500AF00F081
:100B3C0075F800BF80BD80B400AF00BFBD4680BC5F
:100B4C0070470000FFF7F7FF0B480C490C4A0023D5
:100B5C0002E0D458C4500433C4188C42F9D3094A67
:100B6C00094C002301E013600432A242FBD300F0D5
:100B7C00F3FEFFF775FC7047000000200C0000200E
:100B8C00F01900080C0000202C000020FEE70000EB
:100B9C0080B500AF084B1B68074A43F01003136085
:100BAC00032000F02BF90F2000F008F8FFF77AFF74
:100BBC000023184680BD00BF0020024080B582B0E3
:100BCC0000AF7860124B1A68124B1B7819464FF421
:100BDC007A73B3FBF1F3B2FBF3F3184600F035F97B
:100BEC000346002B01D001230EE07B680F2B0AD8A3
:100BFC00002279684FF0FF3000F00BF9064A7B6851
:100C0C001360002300E0012318460837BD4680BD61
:100C1C0000000020080000200400002080B400AF79
:100C2C00054B1B781A46054B1B681344034A13608B
:100C3C0000BFBD4680BC7047080000202800002083
:100C4C0080B400AF024B1B681846BD4680BC704791
:100C5C002800002080B584B000AF7860FFF7F0FF6B
:100C6C00B8607B68FB60FB68B3F1FF3F05D00A4BB3
:100C7C001B781A46FB681344FB6000BFFFF7E0FFCC
:100C8C000246BB68D31AFA689A42F7D800BF00BF75
:100C9C001037BD4680BD00BF0800002080B485B071
:100CAC0000AF78607B6803F00703FB600C4BDB68DC
:100CBC00BB60BA684FF6FF031340BB60FB681A02B7
:100CCC00BB68134343F0BF6343F40033BB60044A77
:100CDC00BB68D36000BF1437BD4680BC704700BFF3
:100CEC0000ED00E080B400AF044BDB681B0A03F09E
:100CFC0007031846BD4680BC704700BF00ED00E0FE
:100D0C0080B483B000AF03463960FB7197F90730AC
:100D1C00002B0ADB3B68DAB20C4997F90730120159
:100D2C00D2B20B4483F800230AE03B68DAB20849DC
:100D3C00FB7903F00F03043B1201D2B20B441A7679
:100D4C0000BF0C37BD4680BC704700BF00E100E01F
:100D5C0000ED00E080B489B000AFF860B9607A6053
:100D6C00FB6803F00703FB61FB69C3F10703042B6A
:100D7C0028BF0423BB61FB690433062B02D9FB6932
:100D8C00033B00E000237B614FF0FF32BB6902FAAA
:100D9C0003F3DA43BB681A407B699A404FF0FF318A
:100DAC007B6901FA03F3D9437B680B401343184664
:100DBC002437BD4680BC704780B582B000AF7860E8
:100DCC007B68013BB3F1807F01D301230FE00A4A1A
:100DDC007B68013B53600F214FF0FF30FFF790FF12
:100DEC00054B00229A60044B07221A600023184618
:100DFC000837BD4680BD00BF10E000E080B582B072
:100E0C0000AF78607868FFF749FF00BF0837BD4630
:100E1C0080BD80B586B000AF0346B9607A60FB73C5
:100E2C0000237B61FFF75EFF78617A68B9687869A7
:100E3C00FFF790FF024697F90F3011461846FFF75F
:100E4C005FFF00BF1837BD4680BD80B582B000AFD4
:100E5C0078607868FFF7B0FF034618460837BD4640
:100E6C0080BD000080B48BB000AF78603960002387
:100E7C007B6200233B6261E101227B6A02FA03F38D
:100E8C00FB613B681B68FA691340BB61BA69FB697B
:100E9C009A4240F050813B685B68974A93425ED01F
:100EAC00954A934275D8954A934258D0934A9342A7
:100EBC006FD8934A934252D0914A934269D8914A3F
:100ECC0093424CD08F4A934263D88F4A934246D078
:100EDC008D4A93425DD8122B2AD8122B59D801A2D5
:100EEC0052F823F06B0F0008450F0008570F00084D
:100EFC00990F00089F0F00089F0F00089F0F000814
:100F0C009F0F00089F0F00089F0F00089F0F0008FD
:100F1C009F0F00089F0F00089F0F00089F0F0008ED
:100F2C009F0F00089F0F00084D0F0008610F00086D
:100F3C00764A934213D02CE03B68DB683B6229E095
:100F4C003B68DB6804333B6224E03B68DB680833B6
:100F5C003B621FE03B68DB680C333B621AE03B688A
:100F6C009B68002B02D104233B6213E03B689B6817
:100F7C00012B05D108233B627B68FA691A6109E0F1
:100F8C0008233B627B68FA695A6103E000233B62E9
:100F9C0000E000BFBB69FF2B01D87B6801E07B68D8
:100FAC0004337B61BB69FF2B02D87B6A9B0002E098
:100FBC007B6A083B9B003B617B691A680F213B698C
:100FCC0001FA03F3DB431A40396A3B6901FA03F374
:100FDC001A437B691A603B685B6803F08053002BF3
:100FEC0000F0A9804A4B9B69494A43F00103936185
:100FFC00474B9B6903F00103BB60BB68454A7B6AA6
:10100C009B08023352F82330FB607B6A03F0030326
:10101C009B000F2202FA03F3DB43FA681340FB60D8
:10102C007B683D4A93420DD07B683C4A934207D083
:10103C007B683B4A934201D1022304E0032302E084
:10104C00012300E000237A6A02F00302920093402D
:10105C00FA681343FB602F497B6A9B080233FA68DA
:10106C0041F823203B685B6803F48013002B06D007
:10107C002C4B9A682B49BB6913438B6006E0294BB8
:10108C009A68BB69DB43274913408B603B685B68FC
:10109C0003F40013002B06D0224BDA682149BB69FC
:1010AC001343CB6006E01F4BDA68BB69DB431D4979
:1010BC001340CB603B685B6803F40033002B06D015
:1010CC00184B5A681749BB6913434B6006E0154B24
:1010DC005A68BB69DB43134913404B603B685B6840
:1010EC0003F48033002B1FD00E4B1A680D49BB69DB
:1010FC0013430B601FE000BF0000321000003110E2
:10110C00000022100000211000001210000011102D
:10111C00001002400000014000080140000C01409A
:10112C0000100140000401400B4B1A68BB69DB4303
:10113C00094913400B607B6A01337B623B681A6878
:10114C007B6A22FA03F3002B7FF496AE00BF00BF3C
:10115C002C37BD4680BC70470004014080B483B07E
:10116C0000AF78600B467B8013467B707B78002B3E
:10117C0003D07A887B681A6103E07B881A047B6849
:10118C001A6100BF0C37BD4680BC704780B586B075
:10119C0000AF78607B68002B01D1012372E27B6881
:1011AC001B6803F00103002B00F08780924B5B68F7
:1011BC0003F00C03042B0CD08F4B5B6803F00C0377
:1011CC00082B12D18C4B5B6803F48033B3F5803F52
:1011DC000BD1894B1B6803F40033002B6CD07B685C
:1011EC005B68002B68D101234CE27B685B68B3F52C
:1011FC00803F06D1804B1B687F4A43F480331360D9
:10120C002EE07B685B68002B0CD17B4B1B687A4A09
:10121C0023F480331360784B1B68774A23F48023C4
:10122C0013601DE07B685B68B3F5A02F0CD1724B8B
:10123C001B68714A43F4802313606F4B1B686E4A22
:10124C0043F4803313600BE06B4B1B686A4A23F446
:10125C0080331360684B1B68674A23F48023136048
:10126C007B685B68002B13D0FFF7EAFC386108E061
:10127C00FFF7E6FC02463B69D31A642B01D9032322
:10128C0000E25D4B1B6803F40033002BF0D014E03C
:10129C00FFF7D6FC386108E0FFF7D2FC02463B6949
:1012AC00D31A642B01D90323ECE1534B1B6803F4D1
:1012BC000033002BF0D100E000BF7B681B6803F00B
:1012CC000203002B63D04C4B5B6803F00C03002B28
:1012DC000BD0494B5B6803F00C03082B1CD1464B1D
:1012EC005B6803F48033002B16D1434B1B6803F06F
:1012FC000203002B05D07B681B69012B01D0012355
:10130C00C0E13D4B1B6823F0F8027B685B69DB0096
:10131C00394913430B603AE07B681B69002B20D0E2
:10132C00364B01221A60FFF78BFC386108E0FFF79F
:10133C0087FC02463B69D31A022B01D90323A1E196
:10134C002D4B1B6803F00203002BF0D02A4B1B68BB
:10135C0023F0F8027B685B69DB00274913430B60C1
:10136C0015E0264B00221A60FFF76AFC386108E092
:10137C00FFF766FC02463B69D31A022B01D9032303
:10138C0080E11D4B1B6803F00203002BF0D17B683E
:10139C001B6803F00803002B3AD07B689B69002B79
:1013AC0019D0174B01221A60FFF74AFC386108E08C
:1013BC00FFF746FC02463B69D31A022B01D90323E3
:1013CC0060E10D4B5B6A03F00203002BF0D00120AF
:1013DC0000F09CFA1CE00A4B00221A60FFF730FC6C
:1013EC0038610FE0FFF72CFC02463B69D31A022B45
:1013FC0008D9032346E100BF00100240000042421E
:10140C0080044242924B5B6A03F00203002BE9D149
:10141C007B681B6803F00403002B00F0A6800023FC
:10142C00FB758B4BDB6903F08053002B0DD1884B84
:10143C00DB69874A43F08053D361854BDB6903F04A
:10144C008053BB60BB680123FB75824B1B6803F4A4
:10145C008073002B18D17F4B1B687E4A43F480733A
:10146C001360FFF7EDFB386108E0FFF7E9FB02467C
:10147C003B69D31A642B01D9032303E1754B1B6819
:10148C0003F48073002BF0D07B68DB68012B06D152
:10149C006F4B1B6A6E4A43F0010313622DE07B68AD
:1014AC00DB68002B0CD16A4B1B6A694A23F00103E1
:1014BC001362674B1B6A664A23F0040313621CE039
:1014CC007B68DB68052B0CD1614B1B6A604A43F0CF
:1014DC00040313625E4B1B6A5D4A43F00103136203
:1014EC000BE05B4B1B6A5A4A23F001031362584B07
:1014FC001B6A574A23F0040313627B68DB68002BDA
:10150C0015D0FFF79DFB38610AE0FFF799FB024607
:10151C003B69D31A41F28832934201D90323B1E0DB
:10152C004B4B1B6A03F00203002BEED014E0FFF7C9
:10153C0087FB38610AE0FFF783FB02463B69D31A4D
:10154C0041F28832934201D903239BE0404B1B6A42
:10155C0003F00203002BEED1FB7D012B05D13C4B9C
:10156C00DB693B4A23F08053D3617B68DB69002B3A
:10157C0000F08780364B5B6803F00C03082B61D0BE
:10158C007B68DB69022B46D1334B00221A60FFF7D4
:10159C0057FB386108E0FFF753FB02463B69D31A4F
:1015AC00022B01D903236DE0294B1B6803F0007358
:1015BC00002BF0D17B681B6AB3F5803F08D1244B1C
:1015CC005B6823F400327B689B68214913434B60B2
:1015DC001F4B5B6823F474127B68196A7B685B6A27
:1015EC000B431B4913434B601B4B01221A60FFF743
:1015FC0027FB386108E0FFF723FB02463B69D31A4F
:10160C00022B01D903233DE0114B1B6803F000733F
:10161C00002BF0D035E0104B00221A60FFF710FBC6
:10162C00386108E0FFF70CFB02463B69D31A022B2A
:10163C0001D9032326E0064B1B6803F00073002B33
:10164C00F0D11EE07B68DB69012B07D1012319E087
:10165C000010024000700040600042420B4B5B687F
:10166C00FB60FB6803F480327B681B6A9A4206D1EC
:10167C00FB6803F470127B685B6A9A4201D0012309
:10168C0000E0002318461837BD4680BD001002400C
:10169C0080B584B000AF786039607B68002B01D1D5
:1016AC000123D0E06A4B1B6803F007033A689A42A7
:1016BC0010D9674B1B6823F0070265493B6813433D
:1016CC000B60634B1B6803F007033A689A4201D026
:1016DC000123B8E07B681B6803F00203002B20D0C9
:1016EC007B681B6803F00403002B05D0594B5B6827
:1016FC00584A43F4E06353607B681B6803F00803AB
:10170C00002B05D0534B5B68524A43F46053536033
:10171C00504B5B6823F0F0027B689B684D49134388
:10172C004B607B681B6803F00103002B40D07B6887
:10173C005B68012B07D1474B1B6803F40033002B6C
:10174C0015D101237FE07B685B68022B07D1414BED
:10175C001B6803F00073002B09D1012373E03D4B90
:10176C001B6803F00203002B01D101236BE0394B02
:10177C005B6823F003027B685B68364913434B605C
:10178C00FFF75EFAF8600AE0FFF75AFA0246FB68C8
:10179C00D31A41F28832934201D9032353E02D4BE3
:1017AC005B6803F00C027B685B689B009A42EBD190
:1017BC00274B1B6803F007033A689A4210D2244B5C
:1017CC001B6823F0070222493B6813430B60204B34
:1017DC001B6803F007033A689A4201D0012332E0F8
:1017EC007B681B6803F00403002B08D0194B5B6863
:1017FC0023F4E0627B68DB68164913434B607B681B
:10180C001B6803F00803002B09D0124B5B6823F410
:10181C0060527B681B69DB000E4913434B6000F080
:10182C0021F802460B4B5B681B0903F00F030A49B6
:10183C00CB5C22FA03F3094A1360094B1B68184668
:10184C00FFF7BCF9002318461037BD4680BD00BF1A
:10185C000020024000100240C419000800000020C3
:10186C000400002080B487B000AF0023FB6000238D
:10187C00BB6000237B6100237B6000233B611E4B1C
:10188C005B68FB60FB6803F00C03042B02D0082B95
:10189C0003D027E0194B3B6127E0FB689B0C03F05E
:1018AC000F03174AD35C7B60FB6803F48033002B77
:1018BC0010D0114B5B685B0C03F00103114AD35C35
:1018CC00BB607B680D4A03FB02F2BB68B2FBF3F30F
:1018DC007B6104E07B680C4A02FB03F37B617B6950
:1018EC003B6102E0054B3B6100BF3B6918461C376E
:1018FC00BD4680BC704700BF0010024000127A0049
:10190C00D4190008E419000800093D0080B485B022
:10191C0000AF78600A4B1B680A4AA2FB03235B0AE0
:10192C007A6802FB03F3FB6000BFFB685A1EFA6087
:10193C00002BF9D100BF00BF1437BD4680BC7047E7
:10194C0000000020D34D621003460244934200D1A4
:10195C00704703F8011BF9E770B500260C4D0D4CD0
:10196C00641BA410A64209D100F01AF800260A4DF7
:10197C000A4C641BA410A64205D170BD55F8043B5B
:10198C0098470136EEE755F8043B98470136F2E7E5
:10199C00E8190008E8190008E8190008EC19000813
:1019AC00F8B500BFF8BC08BC9E467047F8B500BF40
:0819BC00F8BC08BC9E46704710
:1019C40000000000000000000102030406070809EB
:1019D40002030405060708090A0B0C0D0E0F10106C
:0419E40001020000FC
:0419E80031010008C1
:0419EC000D010008E1
:0C19F00000127A0010000000010000004E
:0400000508000B5193
:00000001FF
